{
  "_format": "hh-sol-artifact-1",
  "contractName": "FluentAccount",
  "sourceName": "contracts/FluentAccount.sol",
  "abi": [
    {
      "inputs": [
        {
          "internalType": "string",
          "name": "baseTokenURI",
          "type": "string"
        },
        {
          "internalType": "address",
          "name": "_tokenAddress",
          "type": "address"
        }
      ],
      "stateMutability": "nonpayable",
      "type": "constructor"
    },
    {
      "anonymous": false,
      "inputs": [
        {
          "indexed": true,
          "internalType": "address",
          "name": "owner",
          "type": "address"
        },
        {
          "indexed": true,
          "internalType": "address",
          "name": "approved",
          "type": "address"
        },
        {
          "indexed": true,
          "internalType": "uint256",
          "name": "tokenId",
          "type": "uint256"
        }
      ],
      "name": "Approval",
      "type": "event"
    },
    {
      "anonymous": false,
      "inputs": [
        {
          "indexed": true,
          "internalType": "address",
          "name": "owner",
          "type": "address"
        },
        {
          "indexed": true,
          "internalType": "address",
          "name": "operator",
          "type": "address"
        },
        {
          "indexed": false,
          "internalType": "bool",
          "name": "approved",
          "type": "bool"
        }
      ],
      "name": "ApprovalForAll",
      "type": "event"
    },
    {
      "anonymous": false,
      "inputs": [
        {
          "indexed": true,
          "internalType": "address",
          "name": "previousOwner",
          "type": "address"
        },
        {
          "indexed": true,
          "internalType": "address",
          "name": "newOwner",
          "type": "address"
        }
      ],
      "name": "OwnershipTransferred",
      "type": "event"
    },
    {
      "anonymous": false,
      "inputs": [
        {
          "indexed": true,
          "internalType": "address",
          "name": "from",
          "type": "address"
        },
        {
          "indexed": true,
          "internalType": "address",
          "name": "to",
          "type": "address"
        },
        {
          "indexed": true,
          "internalType": "uint256",
          "name": "tokenId",
          "type": "uint256"
        }
      ],
      "name": "Transfer",
      "type": "event"
    },
    {
      "inputs": [],
      "name": "_allMeetings",
      "outputs": [
        {
          "components": [
            {
              "internalType": "address",
              "name": "user",
              "type": "address"
            },
            {
              "internalType": "string",
              "name": "language",
              "type": "string"
            },
            {
              "internalType": "string",
              "name": "nativeLanguage",
              "type": "string"
            },
            {
              "internalType": "enum FluentAccount.MatchStatus",
              "name": "matchStatus",
              "type": "uint8"
            },
            {
              "internalType": "uint256",
              "name": "matchId",
              "type": "uint256"
            },
            {
              "internalType": "uint256",
              "name": "time",
              "type": "uint256"
            },
            {
              "internalType": "string",
              "name": "meetingLink",
              "type": "string"
            },
            {
              "internalType": "bool",
              "name": "userMatched",
              "type": "bool"
            }
          ],
          "internalType": "struct FluentAccount.Meeting[]",
          "name": "",
          "type": "tuple[]"
        }
      ],
      "stateMutability": "view",
      "type": "function"
    },
    {
      "inputs": [
        {
          "internalType": "address",
          "name": "to",
          "type": "address"
        },
        {
          "internalType": "uint256",
          "name": "tokenId",
          "type": "uint256"
        }
      ],
      "name": "approve",
      "outputs": [],
      "stateMutability": "nonpayable",
      "type": "function"
    },
    {
      "inputs": [
        {
          "internalType": "address",
          "name": "owner",
          "type": "address"
        }
      ],
      "name": "balanceOf",
      "outputs": [
        {
          "internalType": "uint256",
          "name": "",
          "type": "uint256"
        }
      ],
      "stateMutability": "view",
      "type": "function"
    },
    {
      "inputs": [
        {
          "internalType": "string",
          "name": "a",
          "type": "string"
        },
        {
          "internalType": "string",
          "name": "b",
          "type": "string"
        }
      ],
      "name": "compareStrings",
      "outputs": [
        {
          "internalType": "bool",
          "name": "",
          "type": "bool"
        }
      ],
      "stateMutability": "pure",
      "type": "function"
    },
    {
      "inputs": [
        {
          "internalType": "string",
          "name": "_imageUri",
          "type": "string"
        },
        {
          "internalType": "string",
          "name": "_language",
          "type": "string"
        },
        {
          "internalType": "string",
          "name": "_fullName",
          "type": "string"
        },
        {
          "internalType": "string",
          "name": "_nativeLanguage",
          "type": "string"
        }
      ],
      "name": "createAccount",
      "outputs": [],
      "stateMutability": "nonpayable",
      "type": "function"
    },
    {
      "inputs": [
        {
          "internalType": "string",
          "name": "_language",
          "type": "string"
        },
        {
          "internalType": "string",
          "name": "_nativeLanguage",
          "type": "string"
        },
        {
          "internalType": "string",
          "name": "_meetingLink",
          "type": "string"
        },
        {
          "internalType": "uint256",
          "name": "_time",
          "type": "uint256"
        }
      ],
      "name": "createMeeting",
      "outputs": [
        {
          "internalType": "bool",
          "name": "",
          "type": "bool"
        }
      ],
      "stateMutability": "nonpayable",
      "type": "function"
    },
    {
      "inputs": [
        {
          "internalType": "address[]",
          "name": "recipients",
          "type": "address[]"
        }
      ],
      "name": "distributeToken",
      "outputs": [],
      "stateMutability": "nonpayable",
      "type": "function"
    },
    {
      "inputs": [
        {
          "internalType": "address",
          "name": "_owner",
          "type": "address"
        }
      ],
      "name": "getAUserProfile",
      "outputs": [
        {
          "components": [
            {
              "internalType": "string",
              "name": "imageUri",
              "type": "string"
            },
            {
              "internalType": "string",
              "name": "language",
              "type": "string"
            },
            {
              "internalType": "string",
              "name": "fullName",
              "type": "string"
            },
            {
              "internalType": "string",
              "name": "nativeLanguage",
              "type": "string"
            },
            {
              "internalType": "uint256",
              "name": "userId",
              "type": "uint256"
            }
          ],
          "internalType": "struct FluentAccount.Account",
          "name": "",
          "type": "tuple"
        }
      ],
      "stateMutability": "view",
      "type": "function"
    },
    {
      "inputs": [],
      "name": "getAllUsers",
      "outputs": [
        {
          "components": [
            {
              "internalType": "string",
              "name": "imageUri",
              "type": "string"
            },
            {
              "internalType": "string",
              "name": "language",
              "type": "string"
            },
            {
              "internalType": "string",
              "name": "fullName",
              "type": "string"
            },
            {
              "internalType": "string",
              "name": "nativeLanguage",
              "type": "string"
            },
            {
              "internalType": "uint256",
              "name": "userId",
              "type": "uint256"
            }
          ],
          "internalType": "struct FluentAccount.Account[]",
          "name": "",
          "type": "tuple[]"
        }
      ],
      "stateMutability": "view",
      "type": "function"
    },
    {
      "inputs": [
        {
          "internalType": "uint256",
          "name": "tokenId",
          "type": "uint256"
        }
      ],
      "name": "getApproved",
      "outputs": [
        {
          "internalType": "address",
          "name": "",
          "type": "address"
        }
      ],
      "stateMutability": "view",
      "type": "function"
    },
    {
      "inputs": [
        {
          "internalType": "address",
          "name": "_user",
          "type": "address"
        }
      ],
      "name": "getMatchedMeeting",
      "outputs": [
        {
          "internalType": "bool",
          "name": "",
          "type": "bool"
        }
      ],
      "stateMutability": "view",
      "type": "function"
    },
    {
      "inputs": [
        {
          "internalType": "address",
          "name": "owner",
          "type": "address"
        },
        {
          "internalType": "address",
          "name": "operator",
          "type": "address"
        }
      ],
      "name": "isApprovedForAll",
      "outputs": [
        {
          "internalType": "bool",
          "name": "",
          "type": "bool"
        }
      ],
      "stateMutability": "view",
      "type": "function"
    },
    {
      "inputs": [],
      "name": "name",
      "outputs": [
        {
          "internalType": "string",
          "name": "",
          "type": "string"
        }
      ],
      "stateMutability": "view",
      "type": "function"
    },
    {
      "inputs": [],
      "name": "owner",
      "outputs": [
        {
          "internalType": "address",
          "name": "",
          "type": "address"
        }
      ],
      "stateMutability": "view",
      "type": "function"
    },
    {
      "inputs": [
        {
          "internalType": "uint256",
          "name": "tokenId",
          "type": "uint256"
        }
      ],
      "name": "ownerOf",
      "outputs": [
        {
          "internalType": "address",
          "name": "",
          "type": "address"
        }
      ],
      "stateMutability": "view",
      "type": "function"
    },
    {
      "inputs": [],
      "name": "renounceOwnership",
      "outputs": [],
      "stateMutability": "nonpayable",
      "type": "function"
    },
    {
      "inputs": [
        {
          "internalType": "address",
          "name": "from",
          "type": "address"
        },
        {
          "internalType": "address",
          "name": "to",
          "type": "address"
        },
        {
          "internalType": "uint256",
          "name": "tokenId",
          "type": "uint256"
        }
      ],
      "name": "safeTransferFrom",
      "outputs": [],
      "stateMutability": "nonpayable",
      "type": "function"
    },
    {
      "inputs": [
        {
          "internalType": "address",
          "name": "from",
          "type": "address"
        },
        {
          "internalType": "address",
          "name": "to",
          "type": "address"
        },
        {
          "internalType": "uint256",
          "name": "tokenId",
          "type": "uint256"
        },
        {
          "internalType": "bytes",
          "name": "data",
          "type": "bytes"
        }
      ],
      "name": "safeTransferFrom",
      "outputs": [],
      "stateMutability": "nonpayable",
      "type": "function"
    },
    {
      "inputs": [
        {
          "internalType": "address",
          "name": "operator",
          "type": "address"
        },
        {
          "internalType": "bool",
          "name": "approved",
          "type": "bool"
        }
      ],
      "name": "setApprovalForAll",
      "outputs": [],
      "stateMutability": "nonpayable",
      "type": "function"
    },
    {
      "inputs": [
        {
          "internalType": "bytes4",
          "name": "interfaceId",
          "type": "bytes4"
        }
      ],
      "name": "supportsInterface",
      "outputs": [
        {
          "internalType": "bool",
          "name": "",
          "type": "bool"
        }
      ],
      "stateMutability": "view",
      "type": "function"
    },
    {
      "inputs": [],
      "name": "symbol",
      "outputs": [
        {
          "internalType": "string",
          "name": "",
          "type": "string"
        }
      ],
      "stateMutability": "view",
      "type": "function"
    },
    {
      "inputs": [
        {
          "internalType": "uint256",
          "name": "index",
          "type": "uint256"
        }
      ],
      "name": "tokenByIndex",
      "outputs": [
        {
          "internalType": "uint256",
          "name": "",
          "type": "uint256"
        }
      ],
      "stateMutability": "view",
      "type": "function"
    },
    {
      "inputs": [
        {
          "internalType": "address",
          "name": "owner",
          "type": "address"
        },
        {
          "internalType": "uint256",
          "name": "index",
          "type": "uint256"
        }
      ],
      "name": "tokenOfOwnerByIndex",
      "outputs": [
        {
          "internalType": "uint256",
          "name": "",
          "type": "uint256"
        }
      ],
      "stateMutability": "view",
      "type": "function"
    },
    {
      "inputs": [
        {
          "internalType": "uint256",
          "name": "tokenId",
          "type": "uint256"
        }
      ],
      "name": "tokenURI",
      "outputs": [
        {
          "internalType": "string",
          "name": "",
          "type": "string"
        }
      ],
      "stateMutability": "view",
      "type": "function"
    },
    {
      "inputs": [],
      "name": "totalSupply",
      "outputs": [
        {
          "internalType": "uint256",
          "name": "",
          "type": "uint256"
        }
      ],
      "stateMutability": "view",
      "type": "function"
    },
    {
      "inputs": [
        {
          "internalType": "address",
          "name": "from",
          "type": "address"
        },
        {
          "internalType": "address",
          "name": "to",
          "type": "address"
        },
        {
          "internalType": "uint256",
          "name": "tokenId",
          "type": "uint256"
        }
      ],
      "name": "transferFrom",
      "outputs": [],
      "stateMutability": "nonpayable",
      "type": "function"
    },
    {
      "inputs": [
        {
          "internalType": "address",
          "name": "newOwner",
          "type": "address"
        }
      ],
      "name": "transferOwnership",
      "outputs": [],
      "stateMutability": "nonpayable",
      "type": "function"
    },
    {
      "inputs": [
        {
          "internalType": "string",
          "name": "_imageUri",
          "type": "string"
        },
        {
          "internalType": "string",
          "name": "_language",
          "type": "string"
        },
        {
          "internalType": "string",
          "name": "_fullName",
          "type": "string"
        },
        {
          "internalType": "string",
          "name": "_nativeLanguage",
          "type": "string"
        }
      ],
      "name": "updateAccount",
      "outputs": [],
      "stateMutability": "nonpayable",
      "type": "function"
    }
  ],
  "bytecode": "0x60806040523480156200001157600080fd5b506040516200384d3803806200384d833981016040819052620000349162000221565b604080518082018252600b81526a23363ab2b73a2a37b5b2b760a91b60208083019182528351808501909452600384526246544b60e81b908401528151919291620000829160009162000148565b5080516200009890600190602084019062000148565b505050620000b5620000af620000f260201b60201c565b620000f6565b8151620000ca90600d90602085019062000148565b50600e80546001600160a01b0319166001600160a01b0392909216919091179055506200034f565b3390565b600b80546001600160a01b038381166001600160a01b0319831681179093556040519116919082907f8be0079c531659141344cd1fd0a4f28419497f9722a3daafe3b4186f6b6457e090600090a35050565b828054620001569062000312565b90600052602060002090601f0160209004810192826200017a5760008555620001c5565b82601f106200019557805160ff1916838001178555620001c5565b82800160010185558215620001c5579182015b82811115620001c5578251825591602001919060010190620001a8565b50620001d3929150620001d7565b5090565b5b80821115620001d35760008155600101620001d8565b634e487b7160e01b600052604160045260246000fd5b80516001600160a01b03811681146200021c57600080fd5b919050565b600080604083850312156200023557600080fd5b82516001600160401b03808211156200024d57600080fd5b818501915085601f8301126200026257600080fd5b815181811115620002775762000277620001ee565b604051601f8201601f19908116603f01168101908382118183101715620002a257620002a2620001ee565b81604052828152602093508884848701011115620002bf57600080fd5b600091505b82821015620002e35784820184015181830185015290830190620002c4565b82821115620002f55760008484830101525b95506200030791505085820162000204565b925050509250929050565b600181811c908216806200032757607f821691505b602082108114156200034957634e487b7160e01b600052602260045260246000fd5b50919050565b6134ee806200035f6000396000f3fe608060405234801561001057600080fd5b50600436106101c45760003560e01c80638da5cb5b116100f9578063bebcf26511610097578063c87b56dd11610071578063c87b56dd146103b8578063e2842d79146103cb578063e985e9c5146103e0578063f2fde38b1461041c57600080fd5b8063bebcf2651461037f578063bed34bba14610392578063c5468ff5146103a557600080fd5b80639e06e9b8116100d35780639e06e9b8146103315780639f2ed66714610346578063a22cb46514610359578063b88d4fde1461036c57600080fd5b80638da5cb5b1461030557806392dfbf251461031657806395d89b411461032957600080fd5b806342842e0e116101665780636352211e116101405780636352211e146102b757806370a08231146102ca578063715018a6146102dd578063763bdcf2146102e557600080fd5b806342842e0e1461027e5780634ae06098146102915780634f6ccce7146102a457600080fd5b8063095ea7b3116101a2578063095ea7b31461023157806318160ddd1461024657806323b872dd146102585780632f745c591461026b57600080fd5b806301ffc9a7146101c957806306fdde03146101f1578063081812fc14610206575b600080fd5b6101dc6101d7366004612b49565b61042f565b60405190151581526020015b60405180910390f35b6101f9610440565b6040516101e89190612bbe565b610219610214366004612bd1565b6104d2565b6040516001600160a01b0390911681526020016101e8565b61024461023f366004612c06565b6104f9565b005b6008545b6040519081526020016101e8565b610244610266366004612c30565b610614565b61024a610279366004612c06565b610645565b61024461028c366004612c30565b6106db565b61024461029f366004612d18565b6106f6565b61024a6102b2366004612bd1565b61084e565b6102196102c5366004612bd1565b6108e1565b61024a6102d8366004612dc5565b610941565b6102446109c7565b6102f86102f3366004612dc5565b6109db565b6040516101e89190612e59565b600b546001600160a01b0316610219565b610244610324366004612d18565b610c88565b6101f9610cf6565b610339610d05565b6040516101e89190612ea4565b6101dc610354366004612f98565b610f8a565b610244610367366004613036565b611731565b61024461037a36600461306d565b611740565b61024461038d3660046130dd565b611778565b6101dc6103a0366004613152565b6118e8565b6101dc6103b3366004612dc5565b611941565b6101f96103c6366004612bd1565b6119c1565b6103d36119cc565b6040516101e891906131b6565b6101dc6103ee366004613218565b6001600160a01b03918216600090815260056020908152604080832093909416825291909152205460ff1690565b61024461042a366004612dc5565b611c74565b600061043a82611ced565b92915050565b60606000805461044f9061324b565b80601f016020809104026020016040519081016040528092919081815260200182805461047b9061324b565b80156104c85780601f1061049d576101008083540402835291602001916104c8565b820191906000526020600020905b8154815290600101906020018083116104ab57829003601f168201915b5050505050905090565b60006104dd82611d12565b506000908152600460205260409020546001600160a01b031690565b6000610504826108e1565b9050806001600160a01b0316836001600160a01b031614156105775760405162461bcd60e51b815260206004820152602160248201527f4552433732313a20617070726f76616c20746f2063757272656e74206f776e656044820152603960f91b60648201526084015b60405180910390fd5b336001600160a01b0382161480610593575061059381336103ee565b6106055760405162461bcd60e51b815260206004820152603d60248201527f4552433732313a20617070726f76652063616c6c6572206973206e6f7420746f60448201527f6b656e206f776e6572206f7220617070726f76656420666f7220616c6c000000606482015260840161056e565b61060f8383611d71565b505050565b61061e3382611ddf565b61063a5760405162461bcd60e51b815260040161056e90613286565b61060f838383611e5d565b600061065083610941565b82106106b25760405162461bcd60e51b815260206004820152602b60248201527f455243373231456e756d657261626c653a206f776e657220696e646578206f7560448201526a74206f6620626f756e647360a81b606482015260840161056e565b506001600160a01b03919091166000908152600660209081526040808320938352929052205490565b61060f83838360405180602001604052806000815250611740565b6000610701600c5490565b33600090815260116020908152604090912085519293509161072b91600284019190870190612a1f565b50855161073e9082906020890190612a1f565b5084516107549060018301906020880190612a1f565b50825161076a9060038301906020860190612a1f565b506004810182905561077c3383611fce565b61078a600c80546001019055565b60108054600181018255600091909152815482916005027f1b6847dc741a1b0cd08d278845f9d819d87b734759afb55fe2de5cb82a9ae6720190819083906107d19061324b565b6107dc929190612aa3565b5060018201816001019080546107f19061324b565b6107fc929190612aa3565b5060028201816002019080546108119061324b565b61081c929190612aa3565b5060038201816003019080546108319061324b565b61083c929190612aa3565b50600491820154910155505050505050565b600061085960085490565b82106108bc5760405162461bcd60e51b815260206004820152602c60248201527f455243373231456e756d657261626c653a20676c6f62616c20696e646578206f60448201526b7574206f6620626f756e647360a01b606482015260840161056e565b600882815481106108cf576108cf6132d3565b90600052602060002001549050919050565b6000818152600260205260408120546001600160a01b03168061043a5760405162461bcd60e51b8152602060048201526018602482015277115490cdcc8c4e881a5b9d985b1a59081d1bdad95b88125160421b604482015260640161056e565b60006001600160a01b0382166109ab5760405162461bcd60e51b815260206004820152602960248201527f4552433732313a2061646472657373207a65726f206973206e6f7420612076616044820152683634b21037bbb732b960b91b606482015260840161056e565b506001600160a01b031660009081526003602052604090205490565b6109cf612167565b6109d960006121c1565b565b610a0d6040518060a0016040528060608152602001606081526020016060815260200160608152602001600081525090565b6001600160a01b03821660009081526011602052604090819020815160a08101909252805482908290610a3f9061324b565b80601f0160208091040260200160405190810160405280929190818152602001828054610a6b9061324b565b8015610ab85780601f10610a8d57610100808354040283529160200191610ab8565b820191906000526020600020905b815481529060010190602001808311610a9b57829003601f168201915b50505050508152602001600182018054610ad19061324b565b80601f0160208091040260200160405190810160405280929190818152602001828054610afd9061324b565b8015610b4a5780601f10610b1f57610100808354040283529160200191610b4a565b820191906000526020600020905b815481529060010190602001808311610b2d57829003601f168201915b50505050508152602001600282018054610b639061324b565b80601f0160208091040260200160405190810160405280929190818152602001828054610b8f9061324b565b8015610bdc5780601f10610bb157610100808354040283529160200191610bdc565b820191906000526020600020905b815481529060010190602001808311610bbf57829003601f168201915b50505050508152602001600382018054610bf59061324b565b80601f0160208091040260200160405190810160405280929190818152602001828054610c219061324b565b8015610c6e5780601f10610c4357610100808354040283529160200191610c6e565b820191906000526020600020905b815481529060010190602001808311610c5157829003601f168201915b505050505081526020016004820154815250509050919050565b33600090815260116020908152604090912083519091610caf916002840191860190612a1f565b508451610cc29082906020880190612a1f565b508351610cd89060018301906020870190612a1f565b508151610cee9060038301906020850190612a1f565b505050505050565b60606001805461044f9061324b565b6060600f805480602002602001604051908101604052809291908181526020016000905b82821015610f815760008481526020908190206040805161010081019091526008850290910180546001600160a01b031682526001810180549293919291840191610d739061324b565b80601f0160208091040260200160405190810160405280929190818152602001828054610d9f9061324b565b8015610dec5780601f10610dc157610100808354040283529160200191610dec565b820191906000526020600020905b815481529060010190602001808311610dcf57829003601f168201915b50505050508152602001600282018054610e059061324b565b80601f0160208091040260200160405190810160405280929190818152602001828054610e319061324b565b8015610e7e5780601f10610e5357610100808354040283529160200191610e7e565b820191906000526020600020905b815481529060010190602001808311610e6157829003601f168201915b5050509183525050600382015460209091019060ff166001811115610ea557610ea5612e6c565b6001811115610eb657610eb6612e6c565b81526020016004820154815260200160058201548152602001600682018054610ede9061324b565b80601f0160208091040260200160405190810160405280929190818152602001828054610f0a9061324b565b8015610f575780601f10610f2c57610100808354040283529160200191610f57565b820191906000526020600020905b815481529060010190602001808311610f3a57829003601f168201915b50505091835250506007919091015460ff1615156020918201529082526001929092019101610d29565b50505050905090565b336000818152601260209081526040822080546001600160a01b03191690931783558651919291610fc391600184019190890190612a1f565b508451610fd99060028301906020880190612a1f565b5060038101805460ff1916905560006004820181905560058201849055600f80546001818101835591909252825460089092027f8d1108e10bcb7c27dddfc02ed9d693a074039d026cf4ea4240b40f7d581ac802810180546001600160a01b0319166001600160a01b0390941693909317835590830180548493927f8d1108e10bcb7c27dddfc02ed9d693a074039d026cf4ea4240b40f7d581ac8030191906110819061324b565b61108c929190612aa3565b5060028201816002019080546110a19061324b565b6110ac929190612aa3565b50600382810154908201805460ff9092169160ff1916600183818111156110d5576110d5612e6c565b0217905550600482015481600401556005820154816005015560068201816006019080546111029061324b565b61110d929190612aa3565b506007918201549101805460ff191660ff9092161515919091179055600f5460009081906111745760405162461bcd60e51b81526020600482015260146024820152736e6f206d656574696e6720617661696c61626c6560601b604482015260640161056e565b600091505b600f5482101561171d5761118e8260016132ff565b90505b600f5481101561170b57600f81815481106111ae576111ae6132d3565b906000526020600020906008020160050154600f83815481106111d3576111d36132d3565b90600052602060002090600802016005015414158061122c57506001600f8381548110611202576112026132d3565b600091825260209091206003600890920201015460ff16600181111561122a5761122a612e6c565b145b8061127157506001600f8281548110611247576112476132d3565b600091825260209091206003600890920201015460ff16600181111561126f5761126f612e6c565b145b806112d75750600f818154811061128a5761128a6132d3565b6000918252602090912060089091020154600f80546001600160a01b0390921691849081106112bb576112bb6132d3565b60009182526020909120600890910201546001600160a01b0316145b156112e1576116f9565b611443600f83815481106112f7576112f76132d3565b906000526020600020906008020160020180546113139061324b565b80601f016020809104026020016040519081016040528092919081815260200182805461133f9061324b565b801561138c5780601f106113615761010080835404028352916020019161138c565b820191906000526020600020905b81548152906001019060200180831161136f57829003601f168201915b5050505050600f83815481106113a4576113a46132d3565b906000526020600020906008020160010180546113c09061324b565b80601f01602080910402602001604051908101604052809291908181526020018280546113ec9061324b565b80156114395780601f1061140e57610100808354040283529160200191611439565b820191906000526020600020905b81548152906001019060200180831161141c57829003601f168201915b50505050506118e8565b80156115295750611529600f8381548110611460576114606132d3565b9060005260206000209060080201600101805461147c9061324b565b80601f01602080910402602001604051908101604052809291908181526020018280546114a89061324b565b80156114f55780601f106114ca576101008083540402835291602001916114f5565b820191906000526020600020905b8154815290600101906020018083116114d857829003601f168201915b5050505050600f838154811061150d5761150d6132d3565b906000526020600020906008020160020180546113c09061324b565b156116f95781600f8381548110611542576115426132d3565b90600052602060002090600802016004018190555080600f828154811061156b5761156b6132d3565b9060005260206000209060080201600401819055506001600f8381548110611595576115956132d3565b60009182526020909120600360089092020101805460ff1916600183818111156115c1576115c1612e6c565b02179055506001600f82815481106115db576115db6132d3565b60009182526020909120600360089092020101805460ff19166001838181111561160757611607612e6c565b02179055506001600f8381548110611621576116216132d3565b906000526020600020906008020160070160006101000a81548160ff0219169083151502179055506001600f828154811061165e5761165e6132d3565b906000526020600020906008020160070160006101000a81548160ff02191690831515021790555085600f838154811061169a5761169a6132d3565b906000526020600020906008020160060190805190602001906116be929190612a1f565b5085600f82815481106116d3576116d36132d3565b906000526020600020906008020160060190805190602001906116f7929190612a1f565b505b8061170381613317565b915050611191565b8161171581613317565b925050611179565b50506007015460ff1690505b949350505050565b61173c338383612213565b5050565b61174a3383611ddf565b6117665760405162461bcd60e51b815260040161056e90613286565b611772848484846122e2565b50505050565b600e546001600160a01b031667016345785d8a000060005b838110156118e15760008585838181106117ac576117ac6132d3565b90506020020160208101906117c19190612dc5565b6001600160a01b031614156118185760405162461bcd60e51b815260206004820181905260248201527f526563697069656e7420616464726573732063616e6e6f74206265207a65726f604482015260640161056e565b826001600160a01b031663a9059cbb868684818110611839576118396132d3565b905060200201602081019061184e9190612dc5565b6040516001600160e01b031960e084901b1681526001600160a01b03909116600482015260248101859052604401602060405180830381600087803b15801561189657600080fd5b505af11580156118aa573d6000803e3d6000fd5b505050506040513d601f19601f820116820180604052508101906118ce9190613332565b50806118d981613317565b915050611790565b5050505050565b6000816040516020016118fb919061334f565b6040516020818303038152906040528051906020012083604051602001611922919061334f565b6040516020818303038152906040528051906020012014905092915050565b6001600160a01b03811660009081526012602052604081206007015460ff16151560011461199f5760405162461bcd60e51b815260206004820152600b60248201526a1b9bdd081b585d18da195960aa1b604482015260640161056e565b506001600160a01b031660009081526012602052604090206007015460ff1690565b606061043a82612315565b60606010805480602002602001604051908101604052809291908181526020016000905b82821015610f8157838290600052602060002090600502016040518060a0016040529081600082018054611a239061324b565b80601f0160208091040260200160405190810160405280929190818152602001828054611a4f9061324b565b8015611a9c5780601f10611a7157610100808354040283529160200191611a9c565b820191906000526020600020905b815481529060010190602001808311611a7f57829003601f168201915b50505050508152602001600182018054611ab59061324b565b80601f0160208091040260200160405190810160405280929190818152602001828054611ae19061324b565b8015611b2e5780601f10611b0357610100808354040283529160200191611b2e565b820191906000526020600020905b815481529060010190602001808311611b1157829003601f168201915b50505050508152602001600282018054611b479061324b565b80601f0160208091040260200160405190810160405280929190818152602001828054611b739061324b565b8015611bc05780601f10611b9557610100808354040283529160200191611bc0565b820191906000526020600020905b815481529060010190602001808311611ba357829003601f168201915b50505050508152602001600382018054611bd99061324b565b80601f0160208091040260200160405190810160405280929190818152602001828054611c059061324b565b8015611c525780601f10611c2757610100808354040283529160200191611c52565b820191906000526020600020905b815481529060010190602001808311611c3557829003601f168201915b50505050508152602001600482015481525050815260200190600101906119f0565b611c7c612167565b6001600160a01b038116611ce15760405162461bcd60e51b815260206004820152602660248201527f4f776e61626c653a206e6577206f776e657220697320746865207a65726f206160448201526564647265737360d01b606482015260840161056e565b611cea816121c1565b50565b60006001600160e01b0319821663780e9d6360e01b148061043a575061043a82612411565b6000818152600260205260409020546001600160a01b0316611cea5760405162461bcd60e51b8152602060048201526018602482015277115490cdcc8c4e881a5b9d985b1a59081d1bdad95b88125160421b604482015260640161056e565b600081815260046020526040902080546001600160a01b0319166001600160a01b0384169081179091558190611da6826108e1565b6001600160a01b03167f8c5be1e5ebec7d5bd14f71427d1e84f3dd0314c0f7b2291e5b200ac8c7c3b92560405160405180910390a45050565b600080611deb836108e1565b9050806001600160a01b0316846001600160a01b03161480611e3257506001600160a01b0380821660009081526005602090815260408083209388168352929052205460ff165b806117295750836001600160a01b0316611e4b846104d2565b6001600160a01b031614949350505050565b826001600160a01b0316611e70826108e1565b6001600160a01b031614611e965760405162461bcd60e51b815260040161056e9061336b565b6001600160a01b038216611ef85760405162461bcd60e51b8152602060048201526024808201527f4552433732313a207472616e7366657220746f20746865207a65726f206164646044820152637265737360e01b606482015260840161056e565b611f058383836001612461565b826001600160a01b0316611f18826108e1565b6001600160a01b031614611f3e5760405162461bcd60e51b815260040161056e9061336b565b600081815260046020908152604080832080546001600160a01b03199081169091556001600160a01b0387811680865260038552838620805460001901905590871680865283862080546001019055868652600290945282852080549092168417909155905184937fddf252ad1be2c89b69c2b068fc378daa952ba7f163c4a11628f55a4df523b3ef91a4505050565b6001600160a01b0382166120245760405162461bcd60e51b815260206004820181905260248201527f4552433732313a206d696e7420746f20746865207a65726f2061646472657373604482015260640161056e565b6000818152600260205260409020546001600160a01b0316156120895760405162461bcd60e51b815260206004820152601c60248201527f4552433732313a20746f6b656e20616c7265616479206d696e74656400000000604482015260640161056e565b612097600083836001612461565b6000818152600260205260409020546001600160a01b0316156120fc5760405162461bcd60e51b815260206004820152601c60248201527f4552433732313a20746f6b656e20616c7265616479206d696e74656400000000604482015260640161056e565b6001600160a01b038216600081815260036020908152604080832080546001019055848352600290915280822080546001600160a01b0319168417905551839291907fddf252ad1be2c89b69c2b068fc378daa952ba7f163c4a11628f55a4df523b3ef908290a45050565b600b546001600160a01b031633146109d95760405162461bcd60e51b815260206004820181905260248201527f4f776e61626c653a2063616c6c6572206973206e6f7420746865206f776e6572604482015260640161056e565b600b80546001600160a01b038381166001600160a01b0319831681179093556040519116919082907f8be0079c531659141344cd1fd0a4f28419497f9722a3daafe3b4186f6b6457e090600090a35050565b816001600160a01b0316836001600160a01b031614156122755760405162461bcd60e51b815260206004820152601960248201527f4552433732313a20617070726f766520746f2063616c6c657200000000000000604482015260640161056e565b6001600160a01b03838116600081815260056020908152604080832094871680845294825291829020805460ff191686151590811790915591519182527f17307eab39ab6107e8899845ad3d59bd9653f200f220920489ca2b5937696c31910160405180910390a3505050565b6122ed848484611e5d565b6122f98484848461246d565b6117725760405162461bcd60e51b815260040161056e906133b0565b606061232082611d12565b6000828152600a6020526040812080546123399061324b565b80601f01602080910402602001604051908101604052809291908181526020018280546123659061324b565b80156123b25780601f10612387576101008083540402835291602001916123b2565b820191906000526020600020905b81548152906001019060200180831161239557829003601f168201915b5050505050905060006123c3612577565b90508051600014156123d6575092915050565b8151156124085780826040516020016123f0929190613402565b60405160208183030381529060405292505050919050565b61172984612586565b60006001600160e01b031982166380ac58cd60e01b148061244257506001600160e01b03198216635b5e139f60e01b145b8061043a57506301ffc9a760e01b6001600160e01b031983161461043a565b611772848484846125ed565b60006001600160a01b0384163b1561256f57604051630a85bd0160e11b81526001600160a01b0385169063150b7a02906124b1903390899088908890600401613431565b602060405180830381600087803b1580156124cb57600080fd5b505af19250505080156124fb575060408051601f3d908101601f191682019092526124f89181019061346e565b60015b612555573d808015612529576040519150601f19603f3d011682016040523d82523d6000602084013e61252e565b606091505b50805161254d5760405162461bcd60e51b815260040161056e906133b0565b805181602001fd5b6001600160e01b031916630a85bd0160e11b149050611729565b506001611729565b6060600d805461044f9061324b565b606061259182611d12565b600061259b612577565b905060008151116125bb57604051806020016040528060008152506125e6565b806125c58461271a565b6040516020016125d6929190613402565b6040516020818303038152906040525b9392505050565b600181111561265c5760405162461bcd60e51b815260206004820152603560248201527f455243373231456e756d657261626c653a20636f6e7365637574697665207472604482015274185b9cd9995c9cc81b9bdd081cdd5c1c1bdc9d1959605a1b606482015260840161056e565b816001600160a01b0385166126b8576126b381600880546000838152600960205260408120829055600182018355919091527ff3f7a9fe364faab93b216da50a3214154f22a0a2b415b23a84c8169e8b636ee30155565b6126db565b836001600160a01b0316856001600160a01b0316146126db576126db85826127b7565b6001600160a01b0384166126f7576126f281612854565b6118e1565b846001600160a01b0316846001600160a01b0316146118e1576118e18482612903565b6060600061272783612947565b600101905060008167ffffffffffffffff81111561274757612747612c6c565b6040519080825280601f01601f191660200182016040528015612771576020820181803683370190505b5090508181016020015b600019016f181899199a1a9b1b9c1cb0b131b232b360811b600a86061a8153600a85049450846127aa576127af565b61277b565b509392505050565b600060016127c484610941565b6127ce919061348b565b600083815260076020526040902054909150808214612821576001600160a01b03841660009081526006602090815260408083208584528252808320548484528184208190558352600790915290208190555b5060009182526007602090815260408084208490556001600160a01b039094168352600681528383209183525290812055565b6008546000906128669060019061348b565b6000838152600960205260408120546008805493945090928490811061288e5761288e6132d3565b9060005260206000200154905080600883815481106128af576128af6132d3565b60009182526020808320909101929092558281526009909152604080822084905585825281205560088054806128e7576128e76134a2565b6001900381819060005260206000200160009055905550505050565b600061290e83610941565b6001600160a01b039093166000908152600660209081526040808320868452825280832085905593825260079052919091209190915550565b60008072184f03e93ff9f4daa797ed6e38ed64bf6a1f0160401b83106129865772184f03e93ff9f4daa797ed6e38ed64bf6a1f0160401b830492506040015b6d04ee2d6d415b85acef810000000083106129b2576d04ee2d6d415b85acef8100000000830492506020015b662386f26fc1000083106129d057662386f26fc10000830492506010015b6305f5e10083106129e8576305f5e100830492506008015b61271083106129fc57612710830492506004015b60648310612a0e576064830492506002015b600a831061043a5760010192915050565b828054612a2b9061324b565b90600052602060002090601f016020900481019282612a4d5760008555612a93565b82601f10612a6657805160ff1916838001178555612a93565b82800160010185558215612a93579182015b82811115612a93578251825591602001919060010190612a78565b50612a9f929150612b1e565b5090565b828054612aaf9061324b565b90600052602060002090601f016020900481019282612ad15760008555612a93565b82601f10612ae25780548555612a93565b82800160010185558215612a9357600052602060002091601f016020900482015b82811115612a93578254825591600101919060010190612b03565b5b80821115612a9f5760008155600101612b1f565b6001600160e01b031981168114611cea57600080fd5b600060208284031215612b5b57600080fd5b81356125e681612b33565b60005b83811015612b81578181015183820152602001612b69565b838111156117725750506000910152565b60008151808452612baa816020860160208601612b66565b601f01601f19169290920160200192915050565b6020815260006125e66020830184612b92565b600060208284031215612be357600080fd5b5035919050565b80356001600160a01b0381168114612c0157600080fd5b919050565b60008060408385031215612c1957600080fd5b612c2283612bea565b946020939093013593505050565b600080600060608486031215612c4557600080fd5b612c4e84612bea565b9250612c5c60208501612bea565b9150604084013590509250925092565b634e487b7160e01b600052604160045260246000fd5b600067ffffffffffffffff80841115612c9d57612c9d612c6c565b604051601f8501601f19908116603f01168101908282118183101715612cc557612cc5612c6c565b81604052809350858152868686011115612cde57600080fd5b858560208301376000602087830101525050509392505050565b600082601f830112612d0957600080fd5b6125e683833560208501612c82565b60008060008060808587031215612d2e57600080fd5b843567ffffffffffffffff80821115612d4657600080fd5b612d5288838901612cf8565b95506020870135915080821115612d6857600080fd5b612d7488838901612cf8565b94506040870135915080821115612d8a57600080fd5b612d9688838901612cf8565b93506060870135915080821115612dac57600080fd5b50612db987828801612cf8565b91505092959194509250565b600060208284031215612dd757600080fd5b6125e682612bea565b6000815160a08452612df560a0850182612b92565b905060208301518482036020860152612e0e8282612b92565b91505060408301518482036040860152612e288282612b92565b91505060608301518482036060860152612e428282612b92565b915050608083015160808501528091505092915050565b6020815260006125e66020830184612de0565b634e487b7160e01b600052602160045260246000fd5b60028110612ea057634e487b7160e01b600052602160045260246000fd5b9052565b60006020808301818452808551808352604092508286019150828160051b87010184880160005b83811015612f8a57888303603f19018552815180516001600160a01b0316845261010088820151818a870152612f0382870182612b92565b9150508782015185820389870152612f1b8282612b92565b915050606080830151612f3082880182612e82565b50506080828101519086015260a0808301519086015260c08083015186830382880152612f5d8382612b92565b9250505060e0808301519250612f768187018415159052565b509588019593505090860190600101612ecb565b509098975050505050505050565b60008060008060808587031215612fae57600080fd5b843567ffffffffffffffff80821115612fc657600080fd5b612fd288838901612cf8565b95506020870135915080821115612fe857600080fd5b612ff488838901612cf8565b9450604087013591508082111561300a57600080fd5b5061301787828801612cf8565b949793965093946060013593505050565b8015158114611cea57600080fd5b6000806040838503121561304957600080fd5b61305283612bea565b9150602083013561306281613028565b809150509250929050565b6000806000806080858703121561308357600080fd5b61308c85612bea565b935061309a60208601612bea565b925060408501359150606085013567ffffffffffffffff8111156130bd57600080fd5b8501601f810187136130ce57600080fd5b612db987823560208401612c82565b600080602083850312156130f057600080fd5b823567ffffffffffffffff8082111561310857600080fd5b818501915085601f83011261311c57600080fd5b81358181111561312b57600080fd5b8660208260051b850101111561314057600080fd5b60209290920196919550909350505050565b6000806040838503121561316557600080fd5b823567ffffffffffffffff8082111561317d57600080fd5b61318986838701612cf8565b9350602085013591508082111561319f57600080fd5b506131ac85828601612cf8565b9150509250929050565b6000602080830181845280855180835260408601915060408160051b870101925083870160005b8281101561320b57603f198886030184526131f9858351612de0565b945092850192908501906001016131dd565b5092979650505050505050565b6000806040838503121561322b57600080fd5b61323483612bea565b915061324260208401612bea565b90509250929050565b600181811c9082168061325f57607f821691505b6020821081141561328057634e487b7160e01b600052602260045260246000fd5b50919050565b6020808252602d908201527f4552433732313a2063616c6c6572206973206e6f7420746f6b656e206f776e6560408201526c1c881bdc88185c1c1c9bdd9959609a1b606082015260800190565b634e487b7160e01b600052603260045260246000fd5b634e487b7160e01b600052601160045260246000fd5b60008219821115613312576133126132e9565b500190565b600060001982141561332b5761332b6132e9565b5060010190565b60006020828403121561334457600080fd5b81516125e681613028565b60008251613361818460208701612b66565b9190910192915050565b60208082526025908201527f4552433732313a207472616e736665722066726f6d20696e636f72726563742060408201526437bbb732b960d91b606082015260800190565b60208082526032908201527f4552433732313a207472616e7366657220746f206e6f6e20455243373231526560408201527131b2b4bb32b91034b6b83632b6b2b73a32b960711b606082015260800190565b60008351613414818460208801612b66565b835190830190613428818360208801612b66565b01949350505050565b6001600160a01b038581168252841660208201526040810183905260806060820181905260009061346490830184612b92565b9695505050505050565b60006020828403121561348057600080fd5b81516125e681612b33565b60008282101561349d5761349d6132e9565b500390565b634e487b7160e01b600052603160045260246000fdfea2646970667358221220c56e5cff22bb1e6f16dc2478c3cc2b0186e8e85f8748baf5c54f1408f1aa034664736f6c63430008090033",
  "linkReferences": {},
  "deployedLinkReferences": {}
}